:020000040800F2
:1000000000100020651E0008A51D0008AF1D000897
:1000100000000000000000000000000000000000E0
:10002000000000000000000000000000B51D0008F6
:100030000000000000000000BF1D0008C91D0008EE
:10004000B51E000800000000B51E0008B51E00081F
:10005000B51E0008B51E0008B51E0008B51E000834
:1000600000000000B51E0008B51E0008B51E0008FF
:10007000B51E0008B51E0008B51E000800000000EF
:10008000B51E00080000000000000000B51E0008BA
:1000900000000000B51E0008B51E0008B51E0008CF
:1000A00000000000B51E000800000000B51E00089A
:1000B0000000000000000000000000000000000040
:1000C00010B5064C2378002B07D1054B002B02D02E
:1000D000044800E000BF0123237010BD040000208D
:1000E00000000000001F0008044B10B5002B03D0D7
:1000F0000349044800E000BF10BDC04600000000F6
:1001000008000020001F0008002243088B4274D31F
:1001100003098B425FD3030A8B4244D3030B8B4208
:1001200028D3030C8B420DD3FF22090212BA030C11
:100130008B4202D31212090265D0030B8B4219D3F2
:1001400000E0090AC30B8B4201D3CB03C01A524112
:10015000830B8B4201D38B03C01A5241430B8B425A
:1001600001D34B03C01A5241030B8B4201D30B0343
:10017000C01A5241C30A8B4201D3CB02C01A52416A
:10018000830A8B4201D38B02C01A5241430A8B422D
:1001900001D34B02C01A5241030A8B4201D30B0216
:1001A000C01A5241CDD2C3098B4201D3CB01C01A30
:1001B000524183098B4201D38B01C01A524143093A
:1001C0008B4201D34B01C01A524103098B4201D328
:1001D0000B01C01A5241C3088B4201D3CB00C01A95
:1001E000524183088B4201D38B00C01A524143080D
:1001F0008B4201D34B00C01A5241411A00D2014632
:10020000524110467047FFE701B5002000F006F8A4
:1002100002BDC0460029F7D076E770477047C04658
:1002200080B500AF074B074A126810210A431A60D5
:10023000002000F009F801F041FD00231800BD4640
:1002400080BDC0460020024080B582B000AF78601B
:1002500001F084FA0200FA2399001000FFF754FF1E
:100260000300180000F0E8F8796801235B420022DF
:10027000180000F0CBF800231800BD4602B080BD86
:1002800080B500AF034B1B685A1C024B1A60C04676
:10029000BD4680BD2000002080B500AF024B1B682A
:1002A0001800BD4680BDC0462000002080B584B047
:1002B00000AF7860FFF7F0FF0300BB607B68FB6076
:1002C000FB68013302D0FB680133FB60C046FFF7D7
:1002D000E3FF0200BB68D21AFB689A42F7D3C0461C
:1002E000BD4604B080BD0000B0B582B000AF0200D2
:1002F0003960FB1D1A70FB1D1B787F2B32D92F4CE8
:10030000FB1D1B781A000F231340083B99082B4A4A
:10031000FB1D1B7818000F230340083B9B08063386
:100320009B00D31804331B68FA1D127810000322B7
:100330000240D200FF2090400200D2431A403B68A6
:100340009B01FF201840FB1D1B781D0003232B4041
:10035000DB00984003001A438B1D9B00E318043315
:100360001A6027E0164CFB1D1B785BB29B081449F2
:10037000FA1D127852B29208C03292005258F91DFA
:100380000978080003210140C900FF2088400100CE
:10039000C94311403A689201FF201040FA1D1278BB
:1003A000150003222A40D200904002000A43C033C5
:1003B0009B001A51C046BD4602B0B0BD00ED00E042
:1003C00000E100E080B582B000AF78607B68013B5F
:1003D0000C4A934201D9012310E00B4B7A68013A91
:1003E0005A6001235B4203211800FFF77DFF064B93
:1003F00000229A60044B07221A6000231800BD46B1
:1004000002B080BDFFFFFF0010E000E080B584B0C7
:1004100000AFB9607A600F23FB18021C1A70BA682B
:100420000F23FB181B785BB211001800FFF75CFF6D
:10043000C046BD4604B080BD80B582B000AF7860D4
:100440007B681800FFF7BEFF03001800BD4602B02E
:1004500080BD000080B582B000AF78607B68042B5F
:1004600006D1084B074A126804210A431A6005E0C6
:10047000044B044A126804218A431A60C046BD46F0
:1004800002B080BD10E000E080B500AF00F003F8DE
:10049000C046BD4680BD80B500AFC046BD4680BDEC
:1004A00080B586B000AF7860396000237B6100239F
:1004B000FB6000233B614FE13B681B6801217A69C7
:1004C00091400A001340FB60FB68002B00D140E123
:1004D0003B685B68022B03D03B685B68122B23D11F
:1004E0007B69DA087B6808329200D3583B617B69EC
:1004F000072213409B000F229A401300DA433B6906
:1005000013403B613B681A697B6907210B409B00E4
:100510009A4013003A6913433B617B69DA087B68B0
:10052000083292003969D1507B681B683B617B6956
:100530005B0003229A401300DA433B6913403B619E
:100540003B685B6803221A407B695B009A4013009A
:100550003A6913433B617B683A691A603B685B68A0
:10056000012B0BD03B685B68022B07D03B685B68B4
:10057000112B03D03B685B68122B30D17B689B68E2
:100580003B617B695B0003229A401300DA433B69BD
:1005900013403B613B68DA687B695B009A4013005B
:1005A0003A6913433B617B683A699A607B685B6890
:1005B0003B6101227B699A401300DA433B69134097
:1005C0003B613B685B681B0901221A407B699A40CA
:1005D00013003A6913433B617B683A695A607B6850
:1005E000DB683B617B695B0003229A401300DA43BE
:1005F0003B6913403B613B689A687B695B009A40AA
:1006000013003A6913433B617B683A69DA603B68DF
:100610005A6880235B05134000D19AE0544B544A3A
:10062000926901210A439A61514B9B69012213404F
:10063000BB60BB684F4A7B699B0802339B009B5899
:100640003B617B69032213409B000F229A401300F9
:10065000DA433B6913403B617A689023DB059A4299
:1006600013D07B68444A93420DD07B68434A93423F
:1006700007D07B68424A934201D1032306E0052359
:1006800004E0022302E0012300E000237A69032151
:100690000A40920093403A6913433B6135497B69B4
:1006A0009B0802339B003A695A50364B1B683B61EA
:1006B000FB68DA433B6913403B613B685A6880231F
:1006C0005B02134003D03A69FB6813433B612D4B37
:1006D0003A691A602B4B5B683B61FB68DA433B6904
:1006E00013403B613B685A6880239B02134003D050
:1006F0003A69FB6813433B61224B3A695A60214BCC
:100700009B683B61FB68DA433B6913403B613B6894
:100710005A6880235B03134003D03A69FB68134394
:100720003B61184B3A699A60164BDB683B61FB688A
:10073000DA433B6913403B613B685A6880239B0363
:10074000134003D03A69FB6813433B610D4B3A6990
:10075000DA607B6901337B613B681A687B69DA4048
:10076000131E00D0A8E6C046BD4606B080BDC046F8
:10077000001002400000014000040048000800484A
:10078000000C00480004014080B582B000AF7860E2
:100790007B68002B01D1012381E07B6841229B5CB7
:1007A000DBB2002B07D17B684022002199547B6883
:1007B000180001F0BBFA7B684122242199547B6820
:1007C0001B687A681268126801218A431A607B6884
:1007D0001B687A68526834490A401A617B681B6852
:1007E0007A681268926831490A409A607B68DB68CF
:1007F000012B08D17B681B687A6892688021090206
:100800000A439A6007E07B681B687A6892688421D3
:1008100009020A439A607B68DB68022B04D17B687B
:100820001B68802212015A607B681B687A68126814
:1008300052681F490A435A607B681B687A681268CD
:10084000D2681A490A40DA607B681B687A681169C5
:100850007A68526911437A68926912020A43DA602F
:100860007B681B687A68D1697A68126A0A431A60E1
:100870007B681B687A681268126801210A431A6053
:100880007B6800225A647B684122202199547B684E
:1008900000221A637B684222002199540023180029
:1008A000BD4602B080BDC046FFFFFFF0FF7FFFFFE7
:1008B0000080000290B589B002AFF86008007A604D
:1008C00019000A23FB18021C1A800823FB180A1CB3
:1008D0001A8000237B61FB6841229B5CDBB2202BEA
:1008E00000D0F3E0FB6840229B5C012B01D1022386
:1008F000EDE0FB68402201219954FFF7CDFC030095
:100900007B6180231902F8687B6900931923012217
:1009100000F006F9031E01D00323D8E0FB68412252
:1009200021219954FB68422210219954FB6800222E
:100930005A64FB687A685A62FB680822BA181288FF
:100940005A85FB6800225A63FB685B8D9BB2FF2BC4
:1009500012D9FB68FF221A85FB681B8DDAB280234F
:100960005C040A23FB181988F86880239B01009314
:10097000230000F0E7F97AE0FB685B8D9AB2FB6830
:100980001A85FB681B8DDAB280239C040A23FB18AE
:100990001988F86880239B010093230000F0D2F9A6
:1009A00065E07A69B96AFB68180000F0F2F8031E86
:1009B00007D0FB685B6C042B01D1012387E0032384
:1009C00085E0FB681B68FA68526A501CF968486247
:1009D00012789A62FB685B8D9BB2013B9AB2FB680E
:1009E0005A85FB681B8D013B9AB2FB681A85FB6830
:1009F0001B8D002B3BD1FB685B8D9BB2002B36D04F
:100A0000BA6AF8687B69009313000022802100F025
:100A100087F8031E01D0032359E0FB685B8D9BB26E
:100A2000FF2B11D9FB68FF221A85FB681B8DDAB2F8
:100A300080235C040A23FB181988F86800230093BC
:100A4000230000F07FF912E0FB685B8D9AB2FB682F
:100A50001A85FB681B8DDAB280239C040A23FB18DD
:100A60001988F86800230093230000F06BF9FB68F5
:100A70005B8D9BB2002B94D17A69B96AFB68180030
:100A800000F0C6F8031E07D0FB685B6C042B01D195
:100A900001231CE003231AE0FB681B682022DA61B3
:100AA000FB681B68FA68126852680B490A405A6072
:100AB000FB68412220219954FB684222002199546D
:100AC000FB68402200219954002300E00223180013
:100AD000BD4607B090BDC04600E800FE80B582B0BC
:100AE00000AF78607B681B689B6902221340022B71
:100AF00003D17B681B6800229A627B681B689B6934
:100B000001221340012B07D07B681B687A681268AA
:100B1000926901210A439A61C046BD4602B080BD78
:100B200080B584B000AFF860B9603B60FB1D1A70FF
:100B30001BE03B68013318D03B68002B07D0FFF760
:100B4000ABFB0200BB69D21A3B689A420DD9FB6825
:100B5000412220219954FB68422200219954FB68CC
:100B600040220021995403230FE0FB681B689B6916
:100B7000BA681A40BB68D31A5A425341DBB21A0012
:100B8000FB1D1B789A42D4D000231800BD4604B048
:100B900080BD80B584B000AFF860B9607A602BE0AA
:100BA0007A68B968FB68180000F06EF8031E01D07F
:100BB000012329E0BB6801331ED0BB68002B07D09E
:100BC000FFF76AFB02007B68D21ABB689A4213D90E
:100BD000FB685B6C20221A43FB685A64FB68412265
:100BE00020219954FB68422200219954FB6840223D
:100BF00000219954032307E0FB681B689B690222CC
:100C00001340022BCCD100231800BD4604B080BD98
:100C100080B584B000AFF860B9607A6028E07A6887
:100C2000B968FB68180000F02FF8031E01D00123FB
:100C300026E0BB68002B07D0FFF72EFB02007B6885
:100C4000D21ABB689A4213D9FB685B6C20221A4304
:100C5000FB685A64FB68412220219954FB684222B8
:100C600000219954FB68402200219954032307E096
:100C7000FB681B689B6920221340202BCFD10023E7
:100C80001800BD4604B080BD80B584B000AFF860E8
:100C9000B9607A60FB681B689B6910221340102BB7
:100CA00048D11BE0BB68013318D0BB68002B07D0CC
:100CB000FFF7F2FA02007B68D21ABB689A420DD99C
:100CC000FB68412220219954FB684222002199545B
:100CD000FB6840220021995403232CE0FB681B6829
:100CE0009B6920221340202BDCD1FB681B6810225B
:100CF000DA61FB681B682022DA61FB681800FFF7E5
:100D0000EDFEFB681B68FA68126852680C490A40DD
:100D10005A60FB6804225A64FB68412220219954DE
:100D2000FB68422200219954FB684022002199541B
:100D3000012300E000231800BD4604B080BDC0467A
:100D400000E800FE80B586B000AFF8600800110032
:100D50007B600A23FB18021C1A800923FB180A1C5B
:100D60001A7000237B61FB681B685B687B617B6991
:100D70000F4A13407B610A23FB181B889B059A0DC1
:100D80000923FB181B781904FF231B040B401A438B
:100D90007B681A433B6A13437A6913437B61FB68A0
:100DA0001B687A695A60C046BD4606B080BDC04621
:100DB000009800FC80B582B000AF786039607B6835
:100DC00041229B5CDBB2202B38D17B6840229B5CAC
:100DD000012B01D1022332E07B684022012199548A
:100DE0007B684122242199547B681B687A681268C9
:100DF000126801218A431A607B681B687A6812684E
:100E0000126811490A401A607B681B687A68126888
:100E100011683A680A431A607B681B687A6812682E
:100E2000126801210A431A607B68412220219954EB
:100E30007B68402200219954002300E0022318001F
:100E4000BD4602B080BDC046FFEFFFFF80B584B055
:100E500000AF786039600023FB607B6841229B5CB7
:100E6000DBB2202B39D17B6840229B5C012B01D166
:100E7000022333E07B684022012199547B684122A0
:100E8000242199547B681B687A68126812680121D2
:100E90008A431A607B681B681B68FB60FB68114A09
:100EA0001340FB603B681B02FA681343FB607B68DE
:100EB0001B68FA681A607B681B687A681268126897
:100EC00001210A431A607B684122202199547B68E2
:100ED000402200219954002300E002231800BD465F
:100EE00004B080BDFFF0FFFF80B586B000AF786032
:100EF00000233B617B681B680122134000D18DE019
:100F0000C34B5B680C221340042B0ED0C04B5B68B4
:100F10000C221340082B16D1BD4B5A6880235B026C
:100F20001A4080235B029A420DD1B94B1A68802384
:100F30009B02134000D170E07B685B68002B00D0FF
:100F40006BE00123B5E27B685B68012B07D1B04BF6
:100F5000AF4A1268802149020A431A602FE07B6879
:100F60005B68002B0CD1AA4BA94A1268A9490A4018
:100F70001A60A74BA64A1268A7490A401A601EE0E9
:100F80007B685B68052B0ED1A14BA14A12688021BA
:100F9000C9020A431A609E4B9D4A12688021490289
:100FA0000A431A600BE09A4B994A126899490A4021
:100FB0001A60974B964A126897490A401A607B68F4
:100FC0005B68002B14D0FFF767F903003B6108E072
:100FD000FFF762F902003B69D31A642B01D903239E
:100FE00067E28B4B1A6880239B021340F0D015E018
:100FF000FFF752F903003B6108E0FFF74DF90200EB
:101000003B69D31A642B01D9032352E2804B1A683F
:1010100080239B021340F0D100E0C0467B681B6830
:101020000222134000D169E0794B5B680C22134027
:101030000BD0774B5B680C221340082B1CD1744BF0
:101040005A6880235B02134016D1714B1B68022241
:10105000134005D07B68DB68012B01D0012328E217
:101060006B4A6B4B1B68F8218B4319007B681B692B
:10107000DB000B43136041E07B68DB68002B24D06E
:10108000634B634A126801210A431A60FFF704F9AF
:1010900003003B6108E0FFF7FFF802003B69D31A49
:1010A000022B01D9032304E2594B1B68022213408F
:1010B000F1D0574A564B1B68F8218B4319007B68C7
:1010C0001B69DB000B43136018E0514B504A126858
:1010D00001218A431A60FFF7DFF803003B6108E053
:1010E000FFF7DAF802003B69D31A022B01D9032378
:1010F000DFE1474B1B6802221340F1D17B681B687C
:101100000822134036D07B68DB69002B19D0404B96
:101110003F4A526A01210A435A62FFF7BDF80300B1
:101120003B6108E0FFF7B8F802003B69D31A022BD5
:1011300001D90323BDE1364B5B6A02221340F1D093
:1011400018E0334B324A526A01218A435A62FFF750
:10115000A3F803003B6108E0FFF79EF802003B693B
:10116000D31A022B01D90323A3E1294B5B6A022284
:101170001340F1D17B681B680422134000D1B5E015
:101180001723FB1800221A70214BDA6980235B05B4
:10119000134011D11E4B1E4AD269802149050A43D2
:1011A000DA611B4BDA6980235B051340FB60FB6847
:1011B0001723FB1801221A70184B1A6880235B0052
:1011C00013401AD1154B154A1268802149000A4371
:1011D0001A60FFF761F803003B6108E0FFF75CF875
:1011E00002003B69D31A642B01D9032361E10B4B45
:1011F0001A6880235B001340F0D07B689B68012B4A
:101200000ED1034B024A126A01210A431A6235E0E9
:1012100000100240FFFFFEFFFFFFFBFF00700040D9
:101220007B689B68002B0CD1A44BA44A126A012155
:101230008A431A62A14BA14A126A04218A431A62A4
:101240001CE07B689B68052B0CD19C4B9B4A126A67
:1012500004210A431A62994B984A126A01210A43EF
:101260001A620BE0954B954A126A01218A431A6271
:10127000924B924A126A04218A431A627B689B68E5
:10128000002B14D0FFF708F803003B6109E0FFF7DB
:1012900003F802003B69D31A894A934201D9032318
:1012A00007E1864B1B6A02221340F0D013E0FEF7E1
:1012B000F3FF03003B6109E0FEF7EEFF02003B692C
:1012C000D31A7F4A934201D90323F2E07B4B1B6A76
:1012D00002221340F0D11723FB181B78012B05D1F4
:1012E000764B764AD26977490A40DA617B681B6897
:1012F0001022134063D07B685B69012B2AD16F4BAE
:101300006E4A526B04210A435A636C4B6B4A526B10
:1013100001210A435A63FEF7BFFF03003B6108E067
:10132000FEF7BAFF02003B69D31A022B01D903234F
:10133000BFE0624B5B6B02221340F1D05F4A5F4B10
:101340005B6BF8218B4319007B689B69DB000B43C7
:10135000536334E07B685B69053311D1574B574ABF
:10136000526B04218A435A63544A544B5B6BF821F5
:101370008B4319007B689B69DB000B4353631EE0C2
:101380004E4B4E4A526B04210A435A634B4B4B4A15
:10139000526B01218A435A63FEF77EFF03003B61D3
:1013A00008E0FEF779FF02003B69D31A022B01D94E
:1013B00003237EE0414B5B6B02221340F1D17B683B
:1013C0001B6A002B00D173E03C4B5B680C2213407E
:1013D000082B00D16AE07B681B6A022B4BD1374B8C
:1013E000364A126838490A401A60FEF755FF030072
:1013F0003B6108E0FEF750FF02003B69D31A022B65
:1014000001D9032355E02D4B1A6880239B04134018
:10141000F0D12A4A294BDB6A0F218B4319007B68E4
:10142000DB6A0B43D362254A244B5B68274919408A
:101430007B68986A7B685B6A03430B4353601F4B6E
:101440001E4A1268802149040A431A60FEF724FFED
:1014500003003B6108E0FEF71FFF02003B69D31A5F
:10146000022B01D9032324E0144B1A6880239B0428
:101470001340F0D01CE0114B104A126812490A4088
:101480001A60FEF709FF03003B6108E0FEF704FF66
:1014900002003B69D31A022B01D9032309E0074B51
:1014A0001A6880239B041340F0D101E0012300E07F
:1014B00000231800BD4606B080BDC04600100240A3
:1014C00088130000FFFFFFEFFFFFFFFEFFFFC2FFDB
:1014D00080B584B000AF786039600023FB60694B51
:1014E0001B6801221A403B689A4211D2654B654A3B
:1014F000126801218A4311003A680A431A60614B5D
:101500001B6801221A403B689A4201D00123B5E0D2
:101510007B681B680222134009D05B4A5A4B5B6808
:10152000F0218B4319007B689B680B4353607B68F9
:101530001B680122134000D167E07B685B68012BC8
:1015400007D1514B1A6880239B02134014D1012309
:1015500094E07B685B68022B07D14B4B1A688023B1
:101560009B04134008D1012388E0474B1B680222EB
:10157000134001D1012381E0434A434B5B680321BF
:101580008B4319007B685B680B435360FEF784FE56
:101590000300FB607B685B68012B11D109E0FEF75B
:1015A0007BFE0200FB68D31A384A934201D9032319
:1015B00064E0354B5B680C221340042BEFD124E030
:1015C0007B685B68022B1BD109E0FEF765FE020019
:1015D000FB68D31A2D4A934201D903234EE02A4BCC
:1015E0005B680C221340082BEFD10EE0FEF754FE8F
:1015F0000200FB68D31A254A934201D903233DE038
:10160000214B5B680C221340F0D11E4B1B6801225A
:101610001A403B689A4211D91A4B1A4A12680121A2
:101620008A4311003A680A431A60164B1B6801226C
:101630001A403B689A4201D001231FE07B681B6877
:101640000422134008D0104A0F4B5B681049194020
:101650007B68DB680B43536000F020F801000A4B05
:101660005B681B090F2213400A4AD35C0A00DA4068
:10167000094B1A600020FEF7E7FD00231800BD4665
:1016800004B080BD0020024000100240881300001A
:10169000FFF8FFFF601F00080000002090B58FB02A
:1016A00000AF1423FB18284A13CA13C312681A6028
:1016B0003B1D264A13CA13C312681A600023FB623B
:1016C0000023BB6200237B6300237B6200233B6318
:1016D0001F4B5B68FB62FB6A0C221340042B02D099
:1016E000082B03D027E01B4B3B6327E0FB6A9B0CD6
:1016F0000F2213401422BA18D35C7B62144BDB6AAE
:101700000F2213403A1DD35CBB62FA6A80235B024E
:10171000134009D0B96A0F48FEF7F6FC03001A001F
:101720007B6A53437B6303E07B6A0B4A53437B63CF
:101730007B6B3B6302E0074B3B63C0463B6B18008F
:10174000BD460FB090BDC046181F0008281F0008F6
:101750000010024000127A0000093D0080B500AF81
:10176000024B1B681800BD4680BDC046000000202B
:1017700080B586B000AF786000233B610023FB603A
:101780007B681A6880235B02134000D18EE0172328
:10179000FB1800221A70574BDA6980235B0513404F
:1017A00011D1544B534AD269802149050A43DA6169
:1017B000504BDA6980235B051340BB60BB6817237D
:1017C000FB1801221A704C4B1A6880235B001340EF
:1017D0001AD1494B484A1268802149000A431A60CD
:1017E000FEF75AFD03003B6108E0FEF755FD0200DD
:1017F0003B69D31A642B01D9032376E03E4B1A6868
:1018000080235B001340F0D03A4B1A6AC0239B0040
:101810001340FB60FB68002B34D07B685A68C02300
:101820009B001A40FB689A422CD0324B1B6A334A09
:101830001340FB602F4B2F4A126A802149020A4352
:101840001A622C4B2B4A126A2D490A401A62294B04
:10185000FA681A62FB680122134013D0FEF71CFDE0
:1018600003003B6109E0FEF717FD02003B69D31A54
:10187000244A934201D9032337E01E4B1B6A0222FC
:101880001340F0D01B4A1B4B1B6A1C4919407B6854
:101890005B680B4313621723FB181B78012B05D1E0
:1018A000144B144AD26918490A40DA617B681B68F4
:1018B0000122134009D00F4A0E4B1B6B03218B43AF
:1018C00019007B689B680B4313637B681B682022AD
:1018D000134009D0074A074B1B6B10218B4319009B
:1018E0007B68DB680B43136300231800BD4606B01A
:1018F00080BDC0460010024000700040FFFCFFFFAA
:10190000FFFFFEFF88130000FFFFFFEF80B586B0EA
:1019100002AF0200FB1D1A700F23FB18FA1D12788C
:101920000F218A431A70FB1D1B781A010E23FB1826
:101930001A700F23FB181B780C221343DAB208230A
:10194000FB181A700F23FB181B7808221343DAB216
:101950000823FB185A700E23FB181B780C22134324
:10196000DAB20823FB189A700E23FB181B780822A2
:101970001343DAB20823FB18DA700823FA18054873
:101980006423009304234E21FEF794FFC046BD4616
:1019900004B080BD2400002080B586B002AF0200F4
:1019A000FB1D1A700F23FB18FA1D12780F218A43B2
:1019B0001A70FB1D1B781A010E23FB181A700F23D7
:1019C000FB181B780D221343DAB20823FB181A7098
:1019D0000F23FB181B7809221343DAB20823FB18E4
:1019E0005A700E23FB181B780D221343DAB208231A
:1019F000FB189A700E23FB181B7809221343DAB2E6
:101A00000823FB18DA700823FA18054864230093AA
:101A100004234E21FEF74EFFC046BD4604B080BDF4
:101A20002400002080B500AF0220FFF76FFF2820C0
:101A3000FFF76CFF0C20FFF769FF8020FFF766FFC0
:101A4000C046BD4680BD80B582B000AF786006E07C
:101A50007B685A1C7A601B781800FFF79DFF7B6833
:101A60001B78002BF4D1C046BD4602B080BD0000FB
:101A700080B582B000AFFEF7D3FB00F04BF800F06A
:101A8000FFF800F0B1F8FFF7CDFF0120FFF73EFFB0
:101A90001D4B1800FFF7D7FF8020FFF737FF1B4BC8
:101AA0001800FFF7D0FFC020FFF730FF184B1800D9
:101AB000FFF7C9FFFA23DB001800FEF7F7FB012050
:101AC000FFF724FFFB1D61221A7010E0FB1D1B783D
:101AD000712B02D1C020FFF719FFFB1D1B781800E6
:101AE000FFF75AFFFB1D1A78FB1D01321A70FB1D10
:101AF0001B787A2BEAD90120FFF708FFFA23DB00D5
:101B00001800FEF7D3FBC7E7381F0008401F000886
:101B1000481F000880B594B000AF2023FB180222B4
:101B20001A602023FB180122DA602023FB18102200
:101B30001A612023FB1800221A622023FB181800C8
:101B4000FFF7D2F9031E04D0264B9921180000F0AC
:101B5000AFF81023FB1807221A601023FB1800228D
:101B60005A601023FB1800229A601023FB180022F1
:101B7000DA601023FB1800211800FFF7A9FC031EF0
:101B800004D0184BA621180000F092F83B00202248
:101B90001A603B000022DA603B001800FFF7E8FD06
:101BA000031E04D00F4BAD21180000F081F8FFF7A1
:101BB000D5FD0200FA2399001000FEF7A5FA0300F4
:101BC0001800FEF739FC0420FEF744FC01235B42B9
:101BD000002200211800FEF719FCC046BD4614B0D3
:101BE00080BDC046501F000880B500AF204B214A81
:101BF0001A601F4B204A5A601D4B00229A601C4BF2
:101C00000122DA601A4B00221A61194B00225A6134
:101C1000174B00229A61164B0022DA61144B002206
:101C20001A62134B1800FEF7AFFD031E04D0134BCE
:101C3000CB21180000F03CF80D4B00211800FFF7F5
:101C4000B9F8031E04D00D4BD221180000F030F873
:101C5000074B00211800FFF7F9F8031E04D0074BCB
:101C6000D921180000F024F8C046BD4680BDC0460A
:101C700024000020005400400E090020501F0008DE
:101C800080B582B000AF094B084A526980218902B1
:101C90000A435A61054B5A6980239B0213407B60BB
:101CA0007B68C046BD4602B080BDC0460010024001
:101CB00080B582B000AF78603960FEE780B582B051
:101CC00000AF194B184A926901210A439A61164BD9
:101CD0009B69012213407B607B68134B124AD269D7
:101CE000802149050A43DA610F4BDA6980235B05DD
:101CF00013403B603B6805235B4200220021180033
:101D0000FEF784FB02235B42002200211800FEF74D
:101D10007DFB01235B42002200211800FEF776FBC9
:101D2000C046BD4602B080BD0010024080B588B0FC
:101D300000AF78607B681B68184A93422AD10C2355
:101D4000FB18C022D2001A600C23FB1812225A6022
:101D50000C23FB1801229A600C23FB180322DA6083
:101D60000C23FB1804221A610C23FA189023DB05BC
:101D700011001800FEF794FB094B094AD269802133
:101D800089030A43DA61064BDA6980239B03134017
:101D9000BB60BB68C046BD4608B080BD0054004073
:101DA0000010024080B500AFC046BD4680BD80B582
:101DB00000AFFEE780B500AFC046BD4680BD80B530
:101DC00000AFC046BD4680BD80B500AFFEF758FAF3
:101DD000FEF75AFBC046BD4680BD000080B500AF8F
:101DE0001A4B1A4A126801210A431A60174B174A04
:101DF000526817490A405A60144B144A1268154930
:101E00000A401A60114B114A126813490A401A60BD
:101E10000E4B0E4A526811490A405A600B4B0B4A4E
:101E2000D26A0F218A43DA62084B084A126B0C49C6
:101E30000A401A63054B054A526B01218A435A63D3
:101E4000024B00229A60C046BD4680BD0010024091
:101E50000CB8FF08FFFFF6FEFFFFFBFFFFFFC0FF10
:101E6000ECFEFFFF0D4885460D480E490E4A002343
:101E700002E0D458C4500433C4188C42F9D30B4A3E
:101E80000B4C002301E013600432A242FBD3FFF7A6
:101E9000A5FF00F011F8FFF7EBFDFEE700100020B2
:101EA0000000002004000020781F0008040000202B
:101EB00070000020FEE7000070B500260C4D0D4CB0
:101EC000641BA410A64209D1002600F019F80A4D9F
:101ED0000A4C641BA410A64205D170BDB300EB5898
:101EE00098470136EEE7B300EB5898470136F2E722
:101EF000701F0008701F0008701F0008741F000882
:101F0000F8B5C046F8BC08BC9E467047F8B5C04658
:081F1000F8BC08BC9E467047B6
:101F180002030405060708090A0B0C0D0E0F101022
:101F28000102030405060708090A0B0C0D0E0F1021
:101F38004F6920706F766F00747561206D61650060
:101F48006520676F726461002E2E5C5372635C6D4E
:101F580061696E2E630000000000000000000000B0
:081F6800010203040607080949
:041F7000E90000087C
:041F7400C1000008A0
:041F780000127A00D9
:0400000508001E656C
:00000001FF
