:020000040800F2
:1000000000100020C5190008411900084319000814
:1000100000000000000000000000000000000000E0
:10002000000000000000000000000000451900086A
:1000300000000000000000004719000849190008EE
:10004000151A00080000000055190008151A0008CC
:10005000151A0008151A0008151A0008151A0008C4
:1000600000000000151A0008151A0008151A0008EB
:10007000151A0008151A0008151A000800000000DB
:10008000151A00080000000000000000151A000802
:1000900000000000151A0008151A0008151A0008BB
:1000A00000000000151A000800000000151A0008E2
:1000B0000000000000000000000000000000000040
:1000C00010B5064C2378002B07D1054B002B02D02E
:1000D000044800E000BF0123237010BD6800002029
:1000E00000000000C4220008044B10B5002B03D010
:1000F0000349044800E000BF10BDC04600000000F6
:100100006C000020C4220008002243088B4274D3F4
:1001100003098B425FD3030A8B4244D3030B8B4208
:1001200028D3030C8B420DD3FF22090212BA030C11
:100130008B4202D31212090265D0030B8B4219D3F2
:1001400000E0090AC30B8B4201D3CB03C01A524112
:10015000830B8B4201D38B03C01A5241430B8B425A
:1001600001D34B03C01A5241030B8B4201D30B0343
:10017000C01A5241C30A8B4201D3CB02C01A52416A
:10018000830A8B4201D38B02C01A5241430A8B422D
:1001900001D34B02C01A5241030A8B4201D30B0216
:1001A000C01A5241CDD2C3098B4201D3CB01C01A30
:1001B000524183098B4201D38B01C01A524143093A
:1001C0008B4201D34B01C01A524103098B4201D328
:1001D0000B01C01A5241C3088B4201D3CB00C01A95
:1001E000524183088B4201D38B00C01A524143080D
:1001F0008B4201D34B00C01A5241411A00D2014632
:10020000524110467047FFE701B5002000F006F8A4
:1002100002BDC0460029F7D076E770477047C04658
:1002200010B5040000F014FEFA218900FFF76CFFFE
:1002300000F070F8012000222100404200F030F868
:10024000002010BD1023064A10B5116800200B4392
:100250001360FFF7E5FF01F00DFB002010BDC04665
:1002600000200240024A1368013313607047C04601
:1002700094000020014B18687047C046940000208D
:1002800037B50190FFF7F6FF019C0500631C5A1E6D
:100290009341E418FFF7EEFF401BA042FAD337BDAD
:1002A00070B58901002814DA0F23C0B20340083B5F
:1002B000114A9B089B009B18032210409040FC327F
:1002C0001500114085408140DC69AC432143D96170
:1002D00070BD032583082840A840FC352E00074A3E
:1002E0009B009B18C02286402940814092009C5868
:1002F000B44321439950EBE700ED00E000E100E05A
:100300001F2318401E3B8340014A13607047C046BC
:1003100000E100E0094A431E012093420DD8C021AC
:10032000074A08485360036A09061B021B0A0B436D
:10033000036200200723906013607047FFFFFF00F7
:1003400010E000E000ED00E0054B1A68042802D13F
:1003500010431860704704218A431A60FAE7C046C8
:1003600010E000E0704710B5FFF7FCFF10BD000083
:10037000F0B50B6887B0029300230191029ADA402E
:1003800001D107B0F0BD01229A4003920399029A6D
:100390000A40009200D18CE0019A102152681600A8
:1003A0008E43022E0ED107251D40AD000139A94014
:1003B000DC08A4000419276A8F4301990969A94040
:1003C0000F43276203245F00BC40E4430568013EFD
:1003D0002540AC4603251540BD4061460D430560F0
:1003E000012E0FD801998668CD682640BD4035435F
:1003F00085604668039915098E4301210D409D4093
:1004000035434560C56801992C408D688021BD4009
:1004100049052C43C4600A424BD00121264C0326D7
:10042000A5691E400D43A561A4699D080C40059473
:10043000059C0F242149AD00B6006D18B4409021F1
:10044000AF68C905A743002488420CD01C49013479
:10045000884208D01B490134884204D01A49033429
:10046000884200D1023CB44000993C430E00AC608D
:10047000164CCD4327683E43D10301D43E002E40A5
:1004800026606768009E3E43910301D43E002E40E3
:100490006660A768009E3E43D10201D43E002E4014
:1004A000A660E668009F3743920201D42E403700D1
:1004B000E760013362E7C0460010024000000140DF
:1004C0000004004800080048000C004800040140F7
:1004D00003689A69920701D500229A6201229969FC
:1004E000114202D199690A439A61704730B5046894
:1004F0000648656889052840039D890D2B431943EB
:1005000012040A430243626030BDC046009800FCFA
:10051000F8B504000E0017001D00226893693340EF
:100520009B1B59424B41BB4201D000200EE06B1C8B
:10053000F4D0002D0BD12300202241331A70220069
:10054000002303204232403413702370F8BDFFF7BC
:1005500091FE069BC01A8542DFD2ECE7F8B503682E
:100560000400986910230E00170018402025002869
:1005700015D1F8BD721C13D0002E0BD12300202200
:1005800041331A702200002342324034137003209A
:100590002370EEE7FFF76EFEC01B8642EED32368A2
:1005A0009A692A42E6D010222000DA61DD61FFF765
:1005B0008FFF22680849536801200B4053600423D1
:1005C00063642300220041331D7000234232403413
:1005D00013702370CDE7C04600E800FEF8B50400B4
:1005E0000D001600022723689B693B4201D00020C2
:1005F00018E0320029002000FFF7B0FF002818D1D2
:100600006B1CF0D0002D0ED12022636C032013430D
:100610006364230041331A702200002342324034C5
:1006200013702370F8BDFFF725FE801B8542DAD2D8
:10063000EAE70120F6E7F8B504000D0016002027D0
:1006400023689B693B4201D0002016E0320029005C
:100650002000FFF783FF002816D1002D0ED12022A5
:10066000636C032013436364230041331A70220038
:1006700000234232403413702370F8BDFFF7FAFDB7
:10068000801B8542DCD2EAE70120F6E770B5040062
:100690000120002C3FD0250041352B78DBB2002B08
:1006A00005D1220040321370200001F00BF9242301
:1006B00001212B702368E0681A68A6688A431A60D3
:1006C00061681A4A0A401A619968194A114099608A
:1006D000012821D1802109023143996058681549C8
:1006E00001435960D96800200A40DA6061692269D3
:1006F0000A43A16909020A43DA60216AE2690A43EE
:100700001A60012219680A431A60202360642B7062
:1007100020634234207070BD842109023143996006
:100720000228DBD1802109015960D7E7FFFFFFF0E4
:10073000FF7FFFFF00800002F0B5050087B0039146
:100740000492059341352B7804000220202B57D1C9
:10075000230040331A78012A52D001261E70FFF779
:1007600089FD802107000090192332000902200032
:10077000FFF7CEFE002842D121232B70113BAD198B
:100780002B70049B606463626B469B8A6063638525
:100790008023628D9B01FF2A21D9FF2222850093AD
:1007A00080235B0403992000FFF7A0FEFF26638DE2
:1007B0003A000C992000002B19D1FFF73CFF0028CC
:1007C00019D120212368274ED9615A6832405A60D6
:1007D00023004034413319702870207010E0628D7E
:1007E00092B2228500938023D2B29B04DAE7FFF70E
:1007F000F5FE002806D0636C0120042B00D00320F6
:1008000007B0F0BD636A2268591C61621B7893626D
:10081000638D228D013B013A9BB292B263852285A2
:10082000002AC4D1638D002BC1D000970C9B80217E
:100830002000FFF76DFE0028E1D1638DFF2B09D961
:100840008023FF2226855B04009003992000FFF798
:100850004DFEACE78023628D9B0492B22285D2B21A
:100860000090F2E700E800FEF0B504004134227881
:100870000300D2B20220202A18D11D0040352E7864
:10088000012E13D01B68223020701E682338864347
:100890001E601E68064F3E401E601E683143196090
:1008A000196808431860002022702870F0BDC04607
:1008B000FFEFFFFFF0B5050041352A780300D2B203
:1008C0000220202A17D11C0040342678012E12D095
:1008D0001B68223028701E68233886431E601E68FD
:1008E000054F09023E4031431960196808431860FA
:1008F00000202A702070F0BDFFF0FFFFF0B5036804
:1009000085B00500DB072FD42B689B0700D581E05D
:100910002B681B0700D5BCE02B685B0700D5DFE028
:100920002B68DB061AD56A69B54C0423012A00D06E
:100930004BE1616B02260B436363636B1A43626393
:10094000FFF798FC0700636B334200D136E1F821D2
:10095000626BAB698A43DB0013436363296A002936
:1009600000D059E1002013E00C21A54C62680A4038
:10097000042A06D063680B40082B0BD16368DB03A5
:1009800008D523689B03BFD56B68002BBCD1012021
:1009900005B0F0BD6B68012B13D1802322685B0288
:1009A00013432360FFF766FC80260700B602236826
:1009B0003342A9D1FFF75EFCC01B6428F7D903209E
:1009C000E6E7002B16D123688E4A80261340236069
:1009D00023688D4AB60213402360FFF74BFC0700E3
:1009E0002368334200D18FE7FFF744FCC01B642823
:1009F000F6D9E4E7052B05D180232268DB021343F7
:100A00002360CAE723687F4A1340236023687E4A35
:100A10001340C6E70C227A4C6368134206D0636821
:100A20001340082B10D16368DB030DD423689B07A8
:100A300002D5EB68012BAAD1F82122682B698A43E1
:100A4000DB001343236063E7EA680123002A0FD029
:100A50002268022613432360FFF70CFC070023687B
:100A60003342E9D1FFF706FCC01B0228F7D9A6E7FD
:100A7000226802269A432260FFF7FCFB07002368E6
:100A8000334200D144E7FFF7F5FBC01B0228F6D93B
:100A900095E7EA6901235A4C002A10D0626A0226BF
:100AA00013436362FFF7E6FB0700636A334200D03B
:100AB00032E7FFF7DFFBC01B0228F6D97FE7626A47
:100AC00002269A436262FFF7D5FB0700636A33424E
:100AD00000D121E7FFF7CEFBC01B0228F6D96EE755
:100AE00080220021464C5205E3690091134208D14F
:100AF000E3691343E361E36913400393039B012319
:100B000000938027414E7F0033683B4206D0AB689C
:100B1000012B13D1226A1343236230E033683B4335
:100B20003360FFF7A7FB019033683B42EFD1FFF73B
:100B3000A1FB019BC01A6428F6D940E70122002BD3
:100B400014D1236A022793432362236A0332934317
:100B50002362FFF78FFB0600236A3B4225D0FFF795
:100B600089FB2B4B801B9842F6D928E7052B0BD12C
:100B7000216A013B0B432362236A1A432262FFF777
:100B800079FB022706000DE0236A934304222362C7
:100B9000236A9343C0E7FFF76DFB1D4B801B984210
:100BA00000D90CE7236A3B42F5D0009B012B00D013
:100BB000B6E6E369174A1340E361B1E6FFF75AFB73
:100BC000C01B022800D8BEE6F9E6053203D1626BED
:100BD0009A436263BBE6626B02261343012263639E
:100BE000636B93436363FFF745FB0700636B33421B
:100BF00000D1B3E6FFF73EFBC01B0228F6D9DEE6C4
:100C000000100240FFFFFEFFFFFFFBFF00700040EF
:100C100088130000FFFFFFEF0C22264C01206368C1
:100C20001340082B00D1B3E62368234A1340236006
:100C300002292FD1FFF71EFB80260700B604236888
:100C4000334221D10F22E36A9343EA6A1343E362FA
:100C5000696AAB6A62680B43184980250A401343EE
:100C60006360802322685B0413432360FFF702FB69
:100C70000600AD0423682B4200D073E6FFF7FAFAB2
:100C8000801B0228F6D99AE6FFF7F4FAC01B022867
:100C9000D5D994E6FFF7EEFA80250600AD04236867
:100CA0002B4200D15EE6FFF7E5FA801B0228F6D959
:100CB00085E6C04600100240FFFFFFFEFFFFC2FFB7
:100CC00070B5144C88B010222100684600F0C8FEB0
:100CD000210004AD10221031280000F0C1FE0C22CA
:100CE0000D4E73681A40082A11D10F206A46990CDC
:100CF0000140545CF26A0240A95CDB0305D5074859
:100D0000FFF702FA604308B070BD0548FAE70348F0
:100D1000F9E7C046DC2200080010024000127A0009
:100D200000093D00F7B50122434C060023680F007F
:100D300013408B421CD33268930723D4D30729D4A2
:100D4000012322681A40974267D333683B4C5B0704
:100D50006AD4FFF7B5FF6368394A1B061B0FD35CE3
:100D6000D840384B18600020FFF75AFA002008E0FE
:100D7000236893430B432360236813409942DAD0DE
:100D80000120FEBDF0202D494B688343B06803432A
:100D90004B60D3E7294D72682B68012A1AD19B0357
:100DA000EED503216B688B4313436B60FFF762FA48
:100DB00073680190012B15D10C226B681340042B32
:100DC000BED0FFF757FA019BC01A1F4B9842F3D9C8
:100DD0000320D6E7022A02D19B01E2D4D0E79B0789
:100DE000DFD4CDE7022B12D00C226B681342A7D0C0
:100DF000FFF740FA019BC01A134B9842F4D9E7E77A
:100E0000FFF738FA019BC01A0F4B9842E0D80C222A
:100E10006B681340082BF3D192E722689A43226053
:100E200022681A42ACD190E76368084A1340F2681E
:100E3000134363608DE7C04600200240001002406B
:100E4000562300080000002088130000FFF8FFFF71
:100E5000014B18687047C04600000020F0B50368D9
:100E600085B00500DB0328D580220021374C5205D0
:100E7000E3690091134208D1E3691343E361E36935
:100E800013400393039B012300938027304E7F0080
:100E900033683B4226D0C022236A920013402D4E75
:100EA00032D1236A1E406B681E43009B2662012BD1
:100EB00003D1E369284A1340E3612A68D30706D5C2
:100EC000032022490B6B8343A86803430B63002074
:100ED000930617D510211D4A136B8B43E9680B430A
:100EE00013630FE033683B433360FFF7C3F90190AE
:100EF00033683B42CFD1FFF7BDF9019BC01A64288C
:100F0000F6D9032005B0F0BD69680A409342C8D005
:100F10008023226A206A11005B0203432362236A52
:100F20000E483140034023622162D307B9D5FFF751
:100F3000A1F907000222236A1342B2D1FFF79AF9FE
:100F4000074BC01B9842F5D9DBE7C04600100240B2
:100F500000700040FFFCFFFFFFFFFFEFFFFFFEFF01
:100F600088130000036810B59A680400D2040AD5FB
:100F7000DB68DB0507D500F071FB2168054BCA680B
:100F8000D2B21343CB608022034B92025A610123F9
:100F9000637710BD7FFEFFFF00040140A0210268BF
:100FA000F8B5D36804008B43D360FFF763F9FA27E1
:100FB00006002025BF002368DB682B4201D00020FB
:100FC000F8BDFFF757F9801BB842F4D90320F7E7C3
:100FD000F8B5402403680500DA68224201D00020F9
:100FE000F8BD01225242DA60FFF744F9FA27060001
:100FF000BF002B68DB682342F1D1FFF73BF9801B70
:10100000B842F6D90320EBE770B5040001250028AB
:1010100018D0437FDBB2002B02D1037700F078FCBD
:101020000223CA226377236820005A62773A5A6201
:10103000FFF7CEFF2368051E06D0FF225A62042365
:1010400001256377280070BD9A68174920690A4016
:101050009A60626899680243606902430A439A6031
:10106000E2681A61A268196912040A4380211A61B0
:10107000DA688A43DA609B689B0606D42000FFF793
:101080008DFF002801D02368D7E7236807491A6C31
:101090000A401A641A6CA1690A431A64FF225A6250
:1010A00001236377CEE7C046BFFF8FFFFFFFFBFF43
:1010B0000023092803D81B011843C0B270470A381F
:1010C0000133C0B2F5E700000223F7B50D00017F40
:1010D00004001F00012932D0012143770368017702
:1010E0009B683F3128786E78AF780B40002A28D172
:1010F000002B00D1EB70FFF7DBFF01903000FFF712
:10110000D7FF06003800FFF7D3FFEF78019B3F04BD
:101110000743180407433602CA22236820005A6294
:10112000773A5A62FFF754FF3E432368071E12D0F6
:10113000FF225A62042363770023237701273800B4
:10114000FEBD002B00D1EB7000043602064337438E
:10115000EE783604E0E71448144906401E609A68A9
:1011600028690A409A60EA68996802430A43802124
:101170009A60DA688A43DA609B689B060BD4200089
:10118000FFF70CFF002806D0FF2223685A620423D1
:1011900027776377D2E7FF2223685A6201236377B8
:1011A00000232377CBE7C0467F7F7F00FFFFFBFF55
:1011B0000223F7B50D00017F04001E00012931D084
:1011C0000121437701776B78E878AF782E78002A91
:1011D00048D11032134202D093430A336B70FFF7A9
:1011E00067FF01906878FFF763FF05003800FFF79D
:1011F0005FFF019B760330431E0406432D023543F7
:10120000CA22236820005A62773A5A62FFF7E0FE4A
:101210002368061E08D0FF225A6204236377002346
:10122000237701263000FEBD8021124F3D405D60D6
:10123000DA688A43DA609B689B060BD42000FFF7CC
:10124000ADFE002806D0FF2223685A6204232677C9
:101250006377E6E7FF2223685A620123637700235E
:101260002377DFE700041B0203431F4375033D435D
:10127000C6E7C0463FFFFF000223F0B50C00017F28
:10128000050085B01800012900D182E001216B77AB
:101290002B6829779B683F3120786678A7780B40C8
:1012A000002A57D1002B00D1E370FFF701FF019016
:1012B0003000FFF7FDFE06003800FFF7F9FE0700DB
:1012C000631CD87FFFF7F4FE6269E36936021343BB
:1012D000E278120413431F43019B1B041F433E4348
:1012E000CA2263682C490193A369000602932B6804
:1012F00006435A62773A5A629A6801270A409A600E
:10130000D968264AC9B20A43DA60FEF7B3FF0390F0
:101310002B68DC683C402ED00299019ADE610A43BA
:101320005A648022996852000A439A608022996820
:1013300052010A4380219A60194A890210680843C1
:1013400010609068014391600020FF225A626F771D
:1013500028771EE0002B00D1E370E3696269000486
:1013600013431F430743E078360200043E43631CE7
:101370000643D87FB4E7FEF77DFF039BC01AFA232C
:101380009B009842C4D9FF2203202B685A626877D9
:101390002C7705B0F0BDC046FFFEFFFF7FFEFFFFCC
:1013A000000401400A23020953430F221040181879
:1013B000C0B2704770B50C007F2501683F208B6A72
:1013C00063600B695B045B0CA3600B680D490B4009
:1013D0001E0A190C2E401D40402308401940207061
:1013E0006670A570E170002A0AD1FFF7DBFF20705C
:1013F0003000FFF7D7FF60702800FFF7D3FFA07021
:10140000002070BD7F7F7F0070B53F250C00036812
:101410000D495B680B40180CDE041D401B04F60EE2
:101420005B0FE0706670A5702370002A0AD1FFF789
:10143000B9FFE0703000FFF7B5FF60702800FFF7DC
:10144000B1FFA070002070BD3FFFFF001FB50F234C
:1014500004000C219C430B0003AA234313700823B0
:101460000001C0B21C43014318435C339170D0703B
:1014700054704E2100930248603BFFF75DF91FBD99
:10148000980000201FB50F2304000D219C430B0082
:1014900003AA2343137009230001C0B21C43014374
:1014A00018435B339170D07054704E210093024802
:1014B000603BFFF741F91FBD9800002010B50220E6
:1014C000FFF7C4FF2820FFF7C1FF0C20FFF7BEFF86
:1014D0008020FFF7BBFF10BD10B504002078002866
:1014E00000D110BD0134FFF7CDFFF7E7252330B55C
:1014F00087B001A911254B7000230E4C012220005A
:101500000D708B70CB600B61FFF7DEFD002800D003
:10151000FEE76A4607231370182355709370D37043
:10152000694601222000FFF743FE002800D0FEE7B5
:1015300007B030BDE400002000B58BB06A46102330
:10154000137011335370002393700193039304932A
:101550000593069307936B4612220133DA778023B3
:10156000113A5B00694604480993FFF785FE00289D
:1015700000D0FEE70BB000BDE400002070B5134EB4
:1015800088B003AD02AC290000223000FFF712FF43
:10159000210000223000FFF737FFA9786B782A7806
:1015A0000B4800910B4900F065FAFA20E178C00081
:1015B00009186378A27808480091084900F05AFA9F
:1015C0002278074B1A7008B070BDC046E4000020B6
:1015D000040100201F2300080E0100202E23000814
:1015E0008500002010B58020FFF730FF1148FFF77D
:1015F00073FFC020FFF72AFF0F48FFF76DFF0F4B67
:101600000F481B78012B11D00E48022B0ED00E482C
:10161000032B0BD00D48042B08D00D48052B05D00B
:101620000C48062B02D0072B02D10B48FFF754FFC2
:1016300010BDC046040100200E01002085000020DE
:10164000FC22000801230008062300080B230008E1
:1016500010230008152300081A2300080122014B5B
:101660001A7070478400002010B58020FFF7EEFE4E
:101670000B48FFF731FFC020FFF7E8FE0948FFF7EE
:101680002BFF0948FEF7FCFD8020FFF7DFFE3C241E
:101690002020013CFFF7F6FE002CF9D110BDC0461A
:1016A0003C23000849230008B80B00000A2310B5AA
:1016B00094B00893093B0B9310220F93002308A8C2
:1016C0000C921093FFF71AF9011E00D0FEE70723D2
:1016D00001900290039068460093FFF723FB0028D7
:1016E00000D0FEE70F4B07900493802304A89B00D3
:1016F0000593FFF7B3FB041E00D0FEE7FFF7A8FB3E
:10170000FA218900FEF700FDFEF704FE0420FEF733
:101710001BFE0120220021004042FEF7C1FD14B053
:1017200010BDC04620000100F0B593B0FEF78AFD61
:10173000FFF7BCFF8020484BC0035969474C014369
:10174000596180215A69890202400192019A5A69BD
:1017500020000A435A615B697F220B400293029B7F
:101760003F4BA2602360002380326360E26023610C
:101770006361A361FFF748FC002800D0FEE7102357
:1017800003A90B70DB184B70C8601033086101228D
:1017900020008B70FFF798FC002800D0FEE76B4616
:1017A00002276A461F700823092653701823967073
:1017B000D370694601222000FFF7FAFC002800D010
:1017C000FEE7122308A90B700F336B440125DE7767
:1017D00080234860C860086148618861C8615B0017
:1017E0002A0020004D708F704B62FFF745FD0028E6
:1017F00000D0FEE71B4C1C4BA06023601B4B2061FC
:101800006061A061E061206220006360E560FEF736
:101810003DFF011E00D0FEE72000FFF725F8011E66
:1018200000D0FEE72000FFF745F8002800D0FEE7D3
:10183000FFF744FEFFF75AFEFFF77EFEFFF79EFE1E
:10184000FFF7D0FE0A4C2378002BF7D0FFF70CFFF0
:1018500000232370F2E7C04600100240E40000209D
:101860000028004098000020005400400E0900208D
:101870008400002007B50120114B9969014399614B
:1018800080219A69490502400092009ADA69063877
:101890000A43DA610022DB690B4001931100019BCE
:1018A000FEF7FEFC0022022011004042FEF7F8FC89
:1018B0000022012011004042FEF7F2FC07BDC046A5
:1018C000001002407FB5104B02689A4219D1C02324
:1018D000DB000193122390200293113B0393023308
:1018E000049301A90133C0050593FEF741FD802053
:1018F000064A8003D1690143D161D3690340009353
:10190000009B07B000BDC0460054004000100240DC
:10191000094B026810B59A420DD18023074A1B0279
:10192000116A02200B43136200221100FEF7B8FC7B
:101930000220FEF7E5FC10BD002800400010024028
:101940007047FEE77047704710B5FEF78BFCFEF757
:101950000AFD10BD10B50248FFF704FB10BDC046DC
:10196000E40000200121114B11481A680A431A6053
:101970005A6802405A601A680E4802401A601A6893
:101980000D4802401A605A680C4802400F205A6005
:10199000DA6A8243DA621A6B094802401A635A6BA8
:1019A0008A435A6300229A607047C0460010024082
:1019B0000CB8FF08FFFFF6FEFFFFFBFFFFFFC0FFB5
:1019C000ECFEFFFF0D4885460D480E490E4A0023E8
:1019D00002E0D458C4500433C4188C42F9D30B4AE3
:1019E0000B4C002301E013600432A242FBD3FFF74B
:1019F000B9FF00F011F8FFF797FEFEE70010002096
:101A00000000002068000020A423000868000020D7
:101A10001C010020FEE7000070B500260C4D0D4CA7
:101A2000641BA410A64209D1002600F04BFC0A4D0D
:101A30000A4C641BA410A64205D170BDB300EB583C
:101A400098470136EEE7B300EB5898470136F2E7C6
:101A50009C2300089C2300089C230008A023000866
:101A6000002310B59A4200D110BDCC5CC4540133A0
:101A7000F8E700000EB410B59DB002A9029008610D
:101A80000B48822488604861012040421FABC88116
:101A9000084804CBA400006801938C8100F06EF824
:101AA0000023029A13701DB010BC08BC03B0184785
:101AB000FFFFFF7F04000020F0B58E6885B00700AF
:101AC0000C00039201939E4239D890238A89DB004F
:101AD0001A4234D00325096923685B1A02936369AB
:101AE00002985D43EB0F5D19019B6D1001331B18CC
:101AF000AB4200D91D00530532D52900380000F053
:101B000031FB061E09D10C233B6040230120A28932
:101B100040421343A38105B0F0BD029A2169FFF74B
:101B20009FFFA389144A1A4080231343A381029B79
:101B30002661F61826606561019EED1AA560019B7D
:101B4000B34200D21E0032000399206800F0ADFAC3
:101B5000A36800209B1BA36023689E192660DAE718
:101B60002A00380000F05CFB061EE0D12169380035
:101B700000F0AEFAC7E7C0467FFBFFFFF0B59FB0AD
:101B8000029005938B890F0016001B0611D50B6977
:101B9000002B0ED1402100F0E5FA386038610028B2
:101BA00005D10C23029A013813601FB0F0BD402309
:101BB0007B61002306AD6B6120336B761033AB760F
:101BC00034002378002B47D1A31B04930DD0A31B13
:101BD000320039000298FFF76FFF431C00D1B5E0D7
:101BE0006A69049B944663446B612378002B00D19F
:101BF000ACE00122002352426A6002A9543252181A
:101C000001342B60EB60AB601370AB65584E05225E
:101C10002178300000F03EFA621C002820D12968AB
:101C2000CB0604D5532302AE20309B1918700B0746
:101C300004D553232B2002AE9B19187023782A2B2E
:101C400016D000200A21099B2278303A092A55D95A
:101C5000002815D0099313E0252BB5D00134B0E747
:101C60000123801B8340296814000B432B60CDE7C0
:101C7000059B181D1B680590002B39DB0993140088
:101C800023782E2B0BD16378621C2A2B3ED1059B27
:101C900002341A1D1B680592002B34DB0793354E66
:101CA00021780322300000F0F5F9002806D0402307
:101CB000801B83402A68013413432B60217806225D
:101CC0002D48661C297600F0E5F9002846D02B4BFC
:101CD000002B2FD12968059B0722C90528D59B1801
:101CE0009343083305936B69039A9B186B6167E70D
:101CF0005B42EB6002230B432B60C0E74B43013494
:101D00009B180120A0E701235B42C7E700231400D2
:101D10000A201A006B6021783039092903D9002B79
:101D2000BDD00792BBE74243013452180123F2E7CA
:101D30000733D5E705AB00933A00114B2900029811
:101D400000E000BF0390039B0133CCD1BB890B980B
:101D50005B0600D429E70120404226E705AB00934B
:101D60003A00074B2900029800F07AF8EAE7C046EB
:101D7000662300086C2300087023000800000000A0
:101D8000B91A0008F7B5150001938A680B6900902D
:101D90000C00934200DA130022002B6043321278C9
:101DA000002A01D001332B6023689B0602D52B68E3
:101DB00002332B60062723681F4027D023004333BC
:101DC0001B785A1E93412268920630D42200019952
:101DD00043320098089EB047431C25D00623206854
:101DE0002A68E16803400025042B03D18D1AEB43D8
:101DF000DB171D40A3682269934201DD9B1AED1891
:101E00000027BD4220D1002010E00137E3682A6896
:101E10009B1A9F42D2DA22000123193201990098BD
:101E2000089EB047431CF0D101204042FEBD302047
:101E3000E1184331087021005A1C45310978A21875
:101E4000433202331170C1E7220001231A32019993
:101E50000098089EB047431CE6D00137D1E7000048
:101E6000F0B58BB006920A004332079305900492B6
:101E70000A7E0C00109B6E2A00D18FE017D8632ACF
:101E80002CD008D8002A00D199E0582A54D0260036
:101E90004236327029E0642A01D0692AF7D12168DC
:101EA0001A68080623D5111D1960156825E0732AE4
:101EB00000D188E008D86F2A29D0702AE7D12022E3
:101EC00009680A43226003E0752A20D0782ADED10F
:101ED00022007821453211706C4A30E00E001A68F9
:101EE0004236111D196013683370012379E04906E9
:101EF000D9D5111D19600023D55E002D03DA2D23DD
:101F0000049A6D421370624B0A2703932FE02068F6
:101F10001968050603D5081D18600D6805E0400620
:101F2000F9D50D68081D1860ADB2594B0827039309
:101F30006F2A18D00A2716E045310A70544A0392D6
:101F40001A682168101D18601568080622D5CB078D
:101F500002D52023194321601027002D03D120230F
:101F600022689A4322602300002243331A70636878
:101F7000A360002B5CDB0422216891432160002DCB
:101F800058D1049E002B64D02600039B42361B7858
:101F900033705EE04806DAD5ADB2D8E709681A6852
:101FA000080605D5111D1960136862691A6006E0FC
:101FB0004906F7D5111D19601368A28A1A800023FB
:101FC000049E236154E01A68111D196016680021EF
:101FD0006268300000F05EF8002801D0801B60606D
:101FE000636823610023049A137041E0236932007F
:101FF00006990598079DA847431C43D023680025F0
:102000009B070FD4099BE06898423DDA18003BE03B
:1020100022000123193206990598079EB047431CF8
:1020200030D00135E368099A9B1A9D42F0DBE9E75D
:10203000002DA9D0049E28003900FEF7EBF8039B81
:10204000013E5B5C280033703900FEF75DF8051E29
:10205000F1D1082F09D12368DB0706D5636822690F
:10206000934202DC3023013E3370049B9B1B2361AF
:10207000079B09AA00932100069B0598FFF782FEA3
:10208000431CB3D1012040420BB0F0BD88230008AF
:1020900077230008C9B28218904201D1002070470E
:1020A00003788B42FBD00130F6E710B5884202D9A5
:1020B0008B18984208D300239A4207D0CC5CC454B2
:1020C0000133F9E78B5C8354013AFBD210BD000069
:1020D00070B50500002910D00C1F2368002B00DA12
:1020E000E418280000F0D4F81D4A1368002B05D12D
:1020F00063601460280000F0CCF870BDA34209D9D9
:10210000216860188342F3D118685B684118216028
:10211000EEE713005A68002A01D0A242F9D91968E3
:102120005818A0420BD1206809185818196082422B
:10213000E0D110685268411819605A60DAE7A0428D
:1021400002D90C232B60D5E721686018824203D1A5
:10215000106852684118216062605C60CAE7C0463E
:1021600088000020032370B5CD1C9D430835060070
:102170000C2D1ED20C25A9421DD8300000F088F885
:10218000254A14682100002919D1244C2368002B0A
:1021900003D1300000F06AF820602900300000F020
:1021A00065F8431C2CD10C233000336000F071F82B
:1021B00003E0002DDFDA0C233360002070BD0B68D4
:1021C0005B1B1AD40B2B03D90B60CC18256003E0E2
:1021D0008C420ED163681360300000F05AF8200082
:1021E00007220B30231D9043C31AE7D05A42E25016
:1021F000E4E74B6863600C00EEE70C004968C2E757
:102200000323C41C9C43A042E0D0211A300000F0FC
:102210002DF8431CDAD1C6E7880000208C0000208E
:10222000F8B507000D001600002905D11100FFF7D1
:1022300099FF04002000F8BD002A03D1FFF748FFF2
:102240003400F7E700F026F82C008642F2D931007E
:102250003800FFF787FF041EECD029003200FFF79B
:10226000FFFB29003800FFF733FFE3E7002370B5D9
:10227000064C05000800236000F014F8431C03D14D
:102280002368002B00D02B6070BDC04618010020D1
:10229000704770470B1F1B68181F002B01DA0B5883
:1022A000C0187047054B02001968002901D1044984
:1022B0001960186882181A607047C04690000020A4
:1022C0001C010020F8B5C046F8BC08BC9E4670470B
:0C22D000F8B5C046F8BC08BC9E4670473C
:1022DC0002030405060708090A0B0C0D0E0F10105B
:1022EC000102030405060708090A0B0C0D0E0F105A
:1022FC00206D6F6E0020747565002077656E002070
:10230C007468750020667269002073617400207314
:10231C00756E00253032643A253032643A253032FD
:10232C006400253032642F253032642F253264004E
:10233C0053554253435249424520544F00746869E7
:10234C0073204348414E4E454C00000000000000F5
:10235C0000000102030406070809232D302B20007E
:10236C00686C4C0065666745464700303132333443
:10237C0035363738394142434445460030313233E3
:10238C0034353637383961626364656600000000A5
:04239C00E90000084C
:0423A000C100000870
:1023A40000127A0008000020000000000000000075
:1023B4000000000000000000000000000000000019
:1023C4000000000000000000000000000000000009
:1023D40000000000000000000000000000000000F9
:1023E40000000000000000000000000000000000E9
:1023F40000000000000000000000000000000000D9
:082404000000000000000000D0
:04000005080019C511
:00000001FF
